{
  "contractName": "AqwireContract",
  "abi": [
    {
      "constant": true,
      "inputs": [],
      "name": "hasClosed",
      "outputs": [
        {
          "name": "",
          "type": "bool"
        }
      ],
      "payable": false,
      "stateMutability": "view",
      "type": "function"
    },
    {
      "constant": true,
      "inputs": [],
      "name": "rate",
      "outputs": [
        {
          "name": "",
          "type": "uint256"
        }
      ],
      "payable": false,
      "stateMutability": "view",
      "type": "function"
    },
    {
      "constant": true,
      "inputs": [],
      "name": "cap",
      "outputs": [
        {
          "name": "",
          "type": "uint256"
        }
      ],
      "payable": false,
      "stateMutability": "view",
      "type": "function"
    },
    {
      "constant": true,
      "inputs": [],
      "name": "goal",
      "outputs": [
        {
          "name": "",
          "type": "uint256"
        }
      ],
      "payable": false,
      "stateMutability": "view",
      "type": "function"
    },
    {
      "constant": true,
      "inputs": [],
      "name": "weiRaised",
      "outputs": [
        {
          "name": "",
          "type": "uint256"
        }
      ],
      "payable": false,
      "stateMutability": "view",
      "type": "function"
    },
    {
      "constant": true,
      "inputs": [],
      "name": "closingTime",
      "outputs": [
        {
          "name": "",
          "type": "uint256"
        }
      ],
      "payable": false,
      "stateMutability": "view",
      "type": "function"
    },
    {
      "constant": false,
      "inputs": [],
      "name": "finalize",
      "outputs": [],
      "payable": false,
      "stateMutability": "nonpayable",
      "type": "function"
    },
    {
      "constant": true,
      "inputs": [],
      "name": "capReached",
      "outputs": [
        {
          "name": "",
          "type": "bool"
        }
      ],
      "payable": false,
      "stateMutability": "view",
      "type": "function"
    },
    {
      "constant": true,
      "inputs": [],
      "name": "wallet",
      "outputs": [
        {
          "name": "",
          "type": "address"
        }
      ],
      "payable": false,
      "stateMutability": "view",
      "type": "function"
    },
    {
      "constant": true,
      "inputs": [],
      "name": "goalReached",
      "outputs": [
        {
          "name": "",
          "type": "bool"
        }
      ],
      "payable": false,
      "stateMutability": "view",
      "type": "function"
    },
    {
      "constant": true,
      "inputs": [],
      "name": "isFinalized",
      "outputs": [
        {
          "name": "",
          "type": "bool"
        }
      ],
      "payable": false,
      "stateMutability": "view",
      "type": "function"
    },
    {
      "constant": true,
      "inputs": [],
      "name": "owner",
      "outputs": [
        {
          "name": "",
          "type": "address"
        }
      ],
      "payable": false,
      "stateMutability": "view",
      "type": "function"
    },
    {
      "constant": false,
      "inputs": [],
      "name": "claimRefund",
      "outputs": [],
      "payable": false,
      "stateMutability": "nonpayable",
      "type": "function"
    },
    {
      "constant": true,
      "inputs": [],
      "name": "openingTime",
      "outputs": [
        {
          "name": "",
          "type": "uint256"
        }
      ],
      "payable": false,
      "stateMutability": "view",
      "type": "function"
    },
    {
      "constant": true,
      "inputs": [],
      "name": "remainingTokens",
      "outputs": [
        {
          "name": "",
          "type": "uint256"
        }
      ],
      "payable": false,
      "stateMutability": "view",
      "type": "function"
    },
    {
      "constant": true,
      "inputs": [],
      "name": "tokenWallet",
      "outputs": [
        {
          "name": "",
          "type": "address"
        }
      ],
      "payable": false,
      "stateMutability": "view",
      "type": "function"
    },
    {
      "constant": false,
      "inputs": [
        {
          "name": "_beneficiary",
          "type": "address"
        }
      ],
      "name": "buyTokens",
      "outputs": [],
      "payable": true,
      "stateMutability": "payable",
      "type": "function"
    },
    {
      "constant": false,
      "inputs": [
        {
          "name": "newOwner",
          "type": "address"
        }
      ],
      "name": "transferOwnership",
      "outputs": [],
      "payable": false,
      "stateMutability": "nonpayable",
      "type": "function"
    },
    {
      "constant": true,
      "inputs": [],
      "name": "vault",
      "outputs": [
        {
          "name": "",
          "type": "address"
        }
      ],
      "payable": false,
      "stateMutability": "view",
      "type": "function"
    },
    {
      "constant": true,
      "inputs": [],
      "name": "token",
      "outputs": [
        {
          "name": "",
          "type": "address"
        }
      ],
      "payable": false,
      "stateMutability": "view",
      "type": "function"
    },
    {
      "inputs": [
        {
          "name": "_openingTime",
          "type": "uint256"
        },
        {
          "name": "_closingTime",
          "type": "uint256"
        },
        {
          "name": "_rate",
          "type": "uint256"
        },
        {
          "name": "_wallet",
          "type": "address"
        },
        {
          "name": "_hardCap",
          "type": "uint256"
        },
        {
          "name": "_tokenWallet",
          "type": "address"
        },
        {
          "name": "_softCap",
          "type": "uint256"
        },
        {
          "name": "_token",
          "type": "address"
        }
      ],
      "payable": false,
      "stateMutability": "nonpayable",
      "type": "constructor"
    },
    {
      "payable": true,
      "stateMutability": "payable",
      "type": "fallback"
    },
    {
      "anonymous": false,
      "inputs": [],
      "name": "Finalized",
      "type": "event"
    },
    {
      "anonymous": false,
      "inputs": [
        {
          "indexed": true,
          "name": "previousOwner",
          "type": "address"
        },
        {
          "indexed": true,
          "name": "newOwner",
          "type": "address"
        }
      ],
      "name": "OwnershipTransferred",
      "type": "event"
    },
    {
      "anonymous": false,
      "inputs": [
        {
          "indexed": true,
          "name": "purchaser",
          "type": "address"
        },
        {
          "indexed": true,
          "name": "beneficiary",
          "type": "address"
        },
        {
          "indexed": false,
          "name": "value",
          "type": "uint256"
        },
        {
          "indexed": false,
          "name": "amount",
          "type": "uint256"
        }
      ],
      "name": "TokenPurchase",
      "type": "event"
    }
  ],
  "bytecode": "0x60806040526006805460a060020a60ff021916905534801561002057600080fd5b50604051610100806111fd83398101604090815281516020830151918301516060840151608085015160a086015160c087015160e09097015194969394929391929091908284838a8a8a8a876000831161007957600080fd5b600160a060020a038216151561008e57600080fd5b600160a060020a03811615156100a357600080fd5b60029290925560018054600160a060020a03928316600160a060020a03199182161790915560008054929093169116179055428210156100e257600080fd5b818110156100ef57600080fd5b60049190915560055560068054600160a060020a031916331790556000811161011757600080fd5b600154600160a060020a031661012b6101db565b600160a060020a03909116815260405190819003602001906000f080158015610158573d6000803e3d6000fd5b5060088054600160a060020a031916600160a060020a03929092169190911790556007556000811161018957600080fd5b600955600160a060020a03811615156101a157600080fd5b600a8054600160a060020a031916600160a060020a0392909216919091179055838211156101ce57600080fd5b50505050505050506101eb565b6040516105fb80610c0283390190565b610a08806101fa6000396000f3006080604052600436106100f85763ffffffff60e060020a6000350416631515bc2b81146101035780632c4e722e1461012c578063355274ea1461015357806340193883146101685780634042b66f1461017d5780634b6753bc146101925780634bb278f3146101a75780634f935945146101bc578063521eb273146101d15780637d3d6522146102025780638d4e4083146102175780638da5cb5b1461022c578063b5545a3c14610241578063b7a8807c14610256578063bf5839031461026b578063bff99c6c14610280578063ec8ac4d814610295578063f2fde38b146102a9578063fbfa77cf146102ca578063fc0c546a146102df575b610101336102f4565b005b34801561010f57600080fd5b50610118610396565b604080519115158252519081900360200190f35b34801561013857600080fd5b5061014161039e565b60408051918252519081900360200190f35b34801561015f57600080fd5b506101416103a4565b34801561017457600080fd5b506101416103aa565b34801561018957600080fd5b506101416103b0565b34801561019e57600080fd5b506101416103b6565b3480156101b357600080fd5b506101016103bc565b3480156101c857600080fd5b50610118610476565b3480156101dd57600080fd5b506101e6610481565b60408051600160a060020a039092168252519081900360200190f35b34801561020e57600080fd5b50610118610490565b34801561022357600080fd5b5061011861049b565b34801561023857600080fd5b506101e66104bc565b34801561024d57600080fd5b506101016104cb565b34801561026257600080fd5b50610141610585565b34801561027757600080fd5b5061014161058b565b34801561028c57600080fd5b506101e661062d565b610101600160a060020a03600435166102f4565b3480156102b557600080fd5b50610101600160a060020a036004351661063c565b3480156102d657600080fd5b506101e66106d1565b3480156102eb57600080fd5b506101e66106e0565b34600061030183836106ef565b61030a8261071e565b600354909150610320908363ffffffff61073b16565b60035561032d8382610748565b60408051838152602081018390528151600160a060020a0386169233927f623b3804fa71d67900d064613da8f94b9617215ee90799290593e1745087ad18929081900390910190a361037f838361071a565b610387610752565b610391838361071a565b505050565b600554421190565b60025481565b60095481565b60075481565b60035481565b60055481565b600654600160a060020a031633146103d357600080fd5b60065474010000000000000000000000000000000000000000900460ff16156103fb57600080fd5b610403610396565b151561040e57600080fd5b6104166107d3565b6040517f6823b073d48d6e3a7d385eeb601452d680e74bb46afe3255a7d778f3a9b1768190600090a16006805474ff0000000000000000000000000000000000000000191674010000000000000000000000000000000000000000179055565b600954600354101590565b600154600160a060020a031681565b600754600354101590565b60065474010000000000000000000000000000000000000000900460ff1681565b600654600160a060020a031681565b60065474010000000000000000000000000000000000000000900460ff1615156104f457600080fd5b6104fc610490565b1561050657600080fd5b600854604080517ffa89401a0000000000000000000000000000000000000000000000000000000081523360048201529051600160a060020a039092169163fa89401a9160248082019260009290919082900301818387803b15801561056b57600080fd5b505af115801561057f573d6000803e3d6000fd5b50505050565b60045481565b60008054600a54604080517fdd62ed3e000000000000000000000000000000000000000000000000000000008152600160a060020a0392831660048201523060248201529051919092169163dd62ed3e91604480830192602092919082900301818787803b1580156105fc57600080fd5b505af1158015610610573d6000803e3d6000fd5b505050506040513d602081101561062657600080fd5b5051905090565b600a54600160a060020a031681565b600654600160a060020a0316331461065357600080fd5b600160a060020a038116151561066857600080fd5b600654604051600160a060020a038084169216907f8be0079c531659141344cd1fd0a4f28419497f9722a3daafe3b4186f6b6457e090600090a36006805473ffffffffffffffffffffffffffffffffffffffff1916600160a060020a0392909216919091179055565b600854600160a060020a031681565b600054600160a060020a031681565b6106f982826108c2565b60095460035461070f908363ffffffff61073b16565b111561071a57600080fd5b5050565b6000610735600254836108eb90919063ffffffff16565b92915050565b8181018281101561073557fe5b61071a8282610914565b600854604080517ff340fa010000000000000000000000000000000000000000000000000000000081523360048201529051600160a060020a039092169163f340fa01913491602480830192600092919082900301818588803b1580156107b857600080fd5b505af11580156107cc573d6000803e3d6000fd5b5050505050565b6107db610490565b1561085057600860009054906101000a9004600160a060020a0316600160a060020a03166343d726d66040518163ffffffff1660e060020a028152600401600060405180830381600087803b15801561083357600080fd5b505af1158015610847573d6000803e3d6000fd5b505050506108bc565b600860009054906101000a9004600160a060020a0316600160a060020a0316638c52dc416040518163ffffffff1660e060020a028152600401600060405180830381600087803b1580156108a357600080fd5b505af11580156108b7573d6000803e3d6000fd5b505050505b6108c05b565b60045442101580156108d657506005544211155b15156108e157600080fd5b61071a82826109bb565b60008215156108fc57506000610735565b5081810281838281151561090c57fe5b041461073557fe5b60008054600a54604080517f23b872dd000000000000000000000000000000000000000000000000000000008152600160a060020a039283166004820152868316602482015260448101869052905191909216926323b872dd92606480820193602093909283900390910190829087803b15801561099157600080fd5b505af11580156109a5573d6000803e3d6000fd5b505050506040513d602081101561057f57600080fd5b600160a060020a03821615156109d057600080fd5b80151561071a57600080fd00a165627a7a723058209eb23a0439e3b4f62fa73dceb0da66e8d90c1c2c9114410799be71d3cb2895980029608060405234801561001057600080fd5b506040516020806105fb833981016040525160008054600160a060020a03191633179055600160a060020a038116151561004957600080fd5b60028054600160a060020a031916600160a060020a03929092169190911760a060020a60ff0219169055610579806100826000396000f3006080604052600436106100985763ffffffff7c010000000000000000000000000000000000000000000000000000000060003504166343d726d6811461009d578063521eb273146100b45780638c52dc41146100e55780638da5cb5b146100fa578063c19d93fb1461010f578063cb13cddb14610148578063f2fde38b1461017b578063f340fa011461019c578063fa89401a146101b0575b600080fd5b3480156100a957600080fd5b506100b26101d1565b005b3480156100c057600080fd5b506100c96102a7565b60408051600160a060020a039092168252519081900360200190f35b3480156100f157600080fd5b506100b26102b6565b34801561010657600080fd5b506100c9610340565b34801561011b57600080fd5b5061012461034f565b6040518082600281111561013457fe5b60ff16815260200191505060405180910390f35b34801561015457600080fd5b50610169600160a060020a036004351661035f565b60408051918252519081900360200190f35b34801561018757600080fd5b506100b2600160a060020a0360043516610371565b6100b2600160a060020a0360043516610405565b3480156101bc57600080fd5b506100b2600160a060020a0360043516610485565b600054600160a060020a031633146101e857600080fd5b60006002805460a060020a900460ff169081111561020257fe5b1461020c57600080fd5b6002805474ff00000000000000000000000000000000000000001916740200000000000000000000000000000000000000001790556040517f1cdde67b72a90f19919ac732a437ac2f7a10fc128d28c2a6e525d89ce5cd9d3a90600090a1600254604051600160a060020a0390911690303180156108fc02916000818181858888f193505050501580156102a4573d6000803e3d6000fd5b50565b600254600160a060020a031681565b600054600160a060020a031633146102cd57600080fd5b60006002805460a060020a900460ff16908111156102e757fe5b146102f157600080fd5b6002805474ff0000000000000000000000000000000000000000191660a060020a1790556040517f599d8e5a83cffb867d051598c4d70e805d59802d8081c1c7d6dffc5b6aca2b8990600090a1565b600054600160a060020a031681565b60025460a060020a900460ff1681565b60016020526000908152604090205481565b600054600160a060020a0316331461038857600080fd5b600160a060020a038116151561039d57600080fd5b60008054604051600160a060020a03808516939216917f8be0079c531659141344cd1fd0a4f28419497f9722a3daafe3b4186f6b6457e091a36000805473ffffffffffffffffffffffffffffffffffffffff1916600160a060020a0392909216919091179055565b600054600160a060020a0316331461041c57600080fd5b60006002805460a060020a900460ff169081111561043657fe5b1461044057600080fd5b600160a060020a038116600090815260016020526040902054610469903463ffffffff61053a16565b600160a060020a03909116600090815260016020526040902055565b600060016002805460a060020a900460ff16908111156104a157fe5b146104ab57600080fd5b50600160a060020a038116600081815260016020526040808220805490839055905190929183156108fc02918491818181858888f193505050501580156104f6573d6000803e3d6000fd5b50604080518281529051600160a060020a038416917fd7dee2702d63ad89917b6a4da9981c90c4d24f8c2bdfd64c604ecae57d8d0651919081900360200190a25050565b8181018281101561054757fe5b929150505600a165627a7a7230582052501a795a4f642d271a452bf3e973c0f5e24728f718a3fe3e456466343420b00029",
  "source": "pragma solidity ^0.4.23;\r\n\r\nimport \"./AqwireToken.sol\";\r\nimport \"../node_modules/openzeppelin-solidity/contracts/crowdsale/distribution/RefundableCrowdsale.sol\";\r\nimport \"../node_modules/openzeppelin-solidity/contracts/crowdsale/validation/CappedCrowdsale.sol\";\r\nimport \"../node_modules/openzeppelin-solidity/contracts/crowdsale/emission/AllowanceCrowdsale.sol\";\r\n\r\n\r\ncontract AqwireContract is RefundableCrowdsale, CappedCrowdsale, AllowanceCrowdsale {\r\n\r\n    /**\r\n    * @param _rate Number of token units a buyer gets per wei\r\n    * @param _wallet Address where collected funds will be forwarded to\r\n    * @param _token Address of the token being sold\r\n    * @param _openingTime Crowdsale opening time\r\n    * @param _closingTime Crowdsale closing time\r\n    * @param _hardCap Max amount of wei to be contributed\r\n    * @param _softCap Funding goal\r\n    * @param _tokenWallet Address holding the tokens, which has approved allowance to the crowdsale\r\n    */\r\n\r\n\r\n    constructor(\r\n        uint256 _openingTime,\r\n        uint256 _closingTime,\r\n        uint256 _rate,\r\n        address _wallet,\r\n        uint256 _hardCap,\r\n        address _tokenWallet,\r\n        uint256 _softCap,\r\n        ERC20 _token\r\n    )\r\n        public\r\n        Crowdsale(_rate, _wallet, _token)\r\n        CappedCrowdsale(_hardCap)\r\n        AllowanceCrowdsale(_tokenWallet)\r\n        TimedCrowdsale(_openingTime, _closingTime)\r\n        RefundableCrowdsale(_softCap)\r\n    {\r\n        //As goal needs to be met for a successful crowdsale\r\n        //the value needs to less or equal than a cap which is limit for accepted funds\r\n        require(_softCap <= _hardCap);\r\n    }\r\n\r\n\r\n\r\n}",
  "sourcePath": "C:\\ionic\\ico\\contracts\\AqwireContract.sol",
  "compiler": {
    "name": "solc",
    "version": "0.4.24+commit.e67f0147.Emscripten.clang"
  },
  "schemaVersion": "2.0.0",
  "updatedAt": "2018-05-31T14:28:52.113Z"
}